{
	"contracts/Day -1/ClickCounter.sol": {
		"ClickCounter": {
			"abi": [
				{
					"inputs": [],
					"name": "click",
					"outputs": [],
					"stateMutability": "nonpayable",
					"type": "function"
				},
				{
					"inputs": [],
					"name": "counter",
					"outputs": [
						{
							"internalType": "uint256",
							"name": "",
							"type": "uint256"
						}
					],
					"stateMutability": "view",
					"type": "function"
				},
				{
					"inputs": [],
					"name": "decrease",
					"outputs": [],
					"stateMutability": "nonpayable",
					"type": "function"
				},
				{
					"inputs": [],
					"name": "reset",
					"outputs": [],
					"stateMutability": "nonpayable",
					"type": "function"
				}
			],
			"devdoc": {
				"kind": "dev",
				"methods": {},
				"version": 1
			},
			"evm": {
				"assembly": "    /* \"contracts/Day -1/ClickCounter.sol\":57:282  contract ClickCounter{... */\n  mstore(0x40, 0x80)\n  callvalue\n  dup1\n  iszero\n  tag_1\n  jumpi\n  0x00\n  dup1\n  revert\ntag_1:\n  pop\n  dataSize(sub_0)\n  dup1\n  dataOffset(sub_0)\n  0x00\n  codecopy\n  0x00\n  return\nstop\n\nsub_0: assembly {\n        /* \"contracts/Day -1/ClickCounter.sol\":57:282  contract ClickCounter{... */\n      mstore(0x40, 0x80)\n      callvalue\n      dup1\n      iszero\n      tag_1\n      jumpi\n      0x00\n      dup1\n      revert\n    tag_1:\n      pop\n      jumpi(tag_2, lt(calldatasize, 0x04))\n      shr(0xe0, calldataload(0x00))\n      dup1\n      0x61bc221a\n      eq\n      tag_3\n      jumpi\n      dup1\n      0x7d55923d\n      eq\n      tag_4\n      jumpi\n      dup1\n      0xd732d955\n      eq\n      tag_5\n      jumpi\n      dup1\n      0xd826f88f\n      eq\n      tag_6\n      jumpi\n    tag_2:\n      0x00\n      dup1\n      revert\n        /* \"contracts/Day -1/ClickCounter.sol\":84:106  uint256 public counter */\n    tag_3:\n      tag_7\n      tag_8\n      jump\t// in\n    tag_7:\n      mload(0x40)\n      tag_9\n      swap2\n      swap1\n      tag_10\n      jump\t// in\n    tag_9:\n      mload(0x40)\n      dup1\n      swap2\n      sub\n      swap1\n      return\n        /* \"contracts/Day -1/ClickCounter.sol\":113:163  function click() public {... */\n    tag_4:\n      tag_11\n      tag_12\n      jump\t// in\n    tag_11:\n      stop\n        /* \"contracts/Day -1/ClickCounter.sol\":169:222  function decrease() public {... */\n    tag_5:\n      tag_13\n      tag_14\n      jump\t// in\n    tag_13:\n      stop\n        /* \"contracts/Day -1/ClickCounter.sol\":228:280  function reset() public {... */\n    tag_6:\n      tag_15\n      tag_16\n      jump\t// in\n    tag_15:\n      stop\n        /* \"contracts/Day -1/ClickCounter.sol\":84:106  uint256 public counter */\n    tag_8:\n      sload(0x00)\n      dup2\n      jump\t// out\n        /* \"contracts/Day -1/ClickCounter.sol\":113:163  function click() public {... */\n    tag_12:\n        /* \"contracts/Day -1/ClickCounter.sol\":147:154  counter */\n      0x00\n      dup1\n        /* \"contracts/Day -1/ClickCounter.sol\":147:156  counter++ */\n      dup2\n      sload\n      dup1\n      swap3\n      swap2\n      swap1\n      tag_18\n      swap1\n      tag_19\n      jump\t// in\n    tag_18:\n      swap2\n      swap1\n      pop\n      sstore\n      pop\n        /* \"contracts/Day -1/ClickCounter.sol\":113:163  function click() public {... */\n      jump\t// out\n        /* \"contracts/Day -1/ClickCounter.sol\":169:222  function decrease() public {... */\n    tag_14:\n        /* \"contracts/Day -1/ClickCounter.sol\":206:213  counter */\n      0x00\n      dup1\n        /* \"contracts/Day -1/ClickCounter.sol\":206:215  counter-- */\n      dup2\n      sload\n      dup1\n      swap3\n      swap2\n      swap1\n      tag_21\n      swap1\n      tag_22\n      jump\t// in\n    tag_21:\n      swap2\n      swap1\n      pop\n      sstore\n      pop\n        /* \"contracts/Day -1/ClickCounter.sol\":169:222  function decrease() public {... */\n      jump\t// out\n        /* \"contracts/Day -1/ClickCounter.sol\":228:280  function reset() public {... */\n    tag_16:\n        /* \"contracts/Day -1/ClickCounter.sol\":272:273  0 */\n      0x00\n        /* \"contracts/Day -1/ClickCounter.sol\":262:269  counter */\n      dup1\n        /* \"contracts/Day -1/ClickCounter.sol\":262:273  counter = 0 */\n      dup2\n      swap1\n      sstore\n      pop\n        /* \"contracts/Day -1/ClickCounter.sol\":228:280  function reset() public {... */\n      jump\t// out\n        /* \"#utility.yul\":7:84   */\n    tag_24:\n        /* \"#utility.yul\":44:51   */\n      0x00\n        /* \"#utility.yul\":73:78   */\n      dup2\n        /* \"#utility.yul\":62:78   */\n      swap1\n      pop\n        /* \"#utility.yul\":7:84   */\n      swap2\n      swap1\n      pop\n      jump\t// out\n        /* \"#utility.yul\":90:208   */\n    tag_25:\n        /* \"#utility.yul\":177:201   */\n      tag_30\n        /* \"#utility.yul\":195:200   */\n      dup2\n        /* \"#utility.yul\":177:201   */\n      tag_24\n      jump\t// in\n    tag_30:\n        /* \"#utility.yul\":172:175   */\n      dup3\n        /* \"#utility.yul\":165:202   */\n      mstore\n        /* \"#utility.yul\":90:208   */\n      pop\n      pop\n      jump\t// out\n        /* \"#utility.yul\":214:436   */\n    tag_10:\n        /* \"#utility.yul\":307:311   */\n      0x00\n        /* \"#utility.yul\":345:347   */\n      0x20\n        /* \"#utility.yul\":334:343   */\n      dup3\n        /* \"#utility.yul\":330:348   */\n      add\n        /* \"#utility.yul\":322:348   */\n      swap1\n      pop\n        /* \"#utility.yul\":358:429   */\n      tag_32\n        /* \"#utility.yul\":426:427   */\n      0x00\n        /* \"#utility.yul\":415:424   */\n      dup4\n        /* \"#utility.yul\":411:428   */\n      add\n        /* \"#utility.yul\":402:408   */\n      dup5\n        /* \"#utility.yul\":358:429   */\n      tag_25\n      jump\t// in\n    tag_32:\n        /* \"#utility.yul\":214:436   */\n      swap3\n      swap2\n      pop\n      pop\n      jump\t// out\n        /* \"#utility.yul\":442:622   */\n    tag_26:\n        /* \"#utility.yul\":490:567   */\n      0x4e487b7100000000000000000000000000000000000000000000000000000000\n        /* \"#utility.yul\":487:488   */\n      0x00\n        /* \"#utility.yul\":480:568   */\n      mstore\n        /* \"#utility.yul\":587:591   */\n      0x11\n        /* \"#utility.yul\":584:585   */\n      0x04\n        /* \"#utility.yul\":577:592   */\n      mstore\n        /* \"#utility.yul\":611:615   */\n      0x24\n        /* \"#utility.yul\":608:609   */\n      0x00\n        /* \"#utility.yul\":601:616   */\n      revert\n        /* \"#utility.yul\":628:861   */\n    tag_19:\n        /* \"#utility.yul\":667:670   */\n      0x00\n        /* \"#utility.yul\":690:714   */\n      tag_35\n        /* \"#utility.yul\":708:713   */\n      dup3\n        /* \"#utility.yul\":690:714   */\n      tag_24\n      jump\t// in\n    tag_35:\n        /* \"#utility.yul\":681:714   */\n      swap2\n      pop\n        /* \"#utility.yul\":736:802   */\n      0xffffffffffffffffffffffffffffffffffffffffffffffffffffffffffffffff\n        /* \"#utility.yul\":729:734   */\n      dup3\n        /* \"#utility.yul\":726:803   */\n      sub\n        /* \"#utility.yul\":723:826   */\n      tag_36\n      jumpi\n        /* \"#utility.yul\":806:824   */\n      tag_37\n      tag_26\n      jump\t// in\n    tag_37:\n        /* \"#utility.yul\":723:826   */\n    tag_36:\n        /* \"#utility.yul\":853:854   */\n      0x01\n        /* \"#utility.yul\":846:851   */\n      dup3\n        /* \"#utility.yul\":842:855   */\n      add\n        /* \"#utility.yul\":835:855   */\n      swap1\n      pop\n        /* \"#utility.yul\":628:861   */\n      swap2\n      swap1\n      pop\n      jump\t// out\n        /* \"#utility.yul\":867:1038   */\n    tag_22:\n        /* \"#utility.yul\":906:909   */\n      0x00\n        /* \"#utility.yul\":929:953   */\n      tag_39\n        /* \"#utility.yul\":947:952   */\n      dup3\n        /* \"#utility.yul\":929:953   */\n      tag_24\n      jump\t// in\n    tag_39:\n        /* \"#utility.yul\":920:953   */\n      swap2\n      pop\n        /* \"#utility.yul\":975:979   */\n      0x00\n        /* \"#utility.yul\":968:973   */\n      dup3\n        /* \"#utility.yul\":965:980   */\n      sub\n        /* \"#utility.yul\":962:1003   */\n      tag_40\n      jumpi\n        /* \"#utility.yul\":983:1001   */\n      tag_41\n      tag_26\n      jump\t// in\n    tag_41:\n        /* \"#utility.yul\":962:1003   */\n    tag_40:\n        /* \"#utility.yul\":1030:1031   */\n      0x01\n        /* \"#utility.yul\":1023:1028   */\n      dup3\n        /* \"#utility.yul\":1019:1032   */\n      sub\n        /* \"#utility.yul\":1012:1032   */\n      swap1\n      pop\n        /* \"#utility.yul\":867:1038   */\n      swap2\n      swap1\n      pop\n      jump\t// out\n\n    auxdata: 0xa26469706673582212207c51e81ffbed66fb3a8b7e87aa31eefb0986c5ca882b7f24962a89966b54ebab64736f6c634300081a0033\n}\n",
				"bytecode": {
					"linkReferences": {},
					"object": "6080604052348015600e575f80fd5b506101c98061001c5f395ff3fe608060405234801561000f575f80fd5b506004361061004a575f3560e01c806361bc221a1461004e5780637d55923d1461006c578063d732d95514610076578063d826f88f14610080575b5f80fd5b61005661008a565b60405161006391906100df565b60405180910390f35b61007461008f565b005b61007e6100a7565b005b6100886100bf565b005b5f5481565b5f808154809291906100a090610125565b9190505550565b5f808154809291906100b89061016c565b9190505550565b5f8081905550565b5f819050919050565b6100d9816100c7565b82525050565b5f6020820190506100f25f8301846100d0565b92915050565b7f4e487b71000000000000000000000000000000000000000000000000000000005f52601160045260245ffd5b5f61012f826100c7565b91507fffffffffffffffffffffffffffffffffffffffffffffffffffffffffffffffff8203610161576101606100f8565b5b600182019050919050565b5f610176826100c7565b91505f8203610188576101876100f8565b5b60018203905091905056fea26469706673582212207c51e81ffbed66fb3a8b7e87aa31eefb0986c5ca882b7f24962a89966b54ebab64736f6c634300081a0033",
					"opcodes": "PUSH1 0x80 PUSH1 0x40 MSTORE CALLVALUE DUP1 ISZERO PUSH1 0xE JUMPI PUSH0 DUP1 REVERT JUMPDEST POP PUSH2 0x1C9 DUP1 PUSH2 0x1C PUSH0 CODECOPY PUSH0 RETURN INVALID PUSH1 0x80 PUSH1 0x40 MSTORE CALLVALUE DUP1 ISZERO PUSH2 0xF JUMPI PUSH0 DUP1 REVERT JUMPDEST POP PUSH1 0x4 CALLDATASIZE LT PUSH2 0x4A JUMPI PUSH0 CALLDATALOAD PUSH1 0xE0 SHR DUP1 PUSH4 0x61BC221A EQ PUSH2 0x4E JUMPI DUP1 PUSH4 0x7D55923D EQ PUSH2 0x6C JUMPI DUP1 PUSH4 0xD732D955 EQ PUSH2 0x76 JUMPI DUP1 PUSH4 0xD826F88F EQ PUSH2 0x80 JUMPI JUMPDEST PUSH0 DUP1 REVERT JUMPDEST PUSH2 0x56 PUSH2 0x8A JUMP JUMPDEST PUSH1 0x40 MLOAD PUSH2 0x63 SWAP2 SWAP1 PUSH2 0xDF JUMP JUMPDEST PUSH1 0x40 MLOAD DUP1 SWAP2 SUB SWAP1 RETURN JUMPDEST PUSH2 0x74 PUSH2 0x8F JUMP JUMPDEST STOP JUMPDEST PUSH2 0x7E PUSH2 0xA7 JUMP JUMPDEST STOP JUMPDEST PUSH2 0x88 PUSH2 0xBF JUMP JUMPDEST STOP JUMPDEST PUSH0 SLOAD DUP2 JUMP JUMPDEST PUSH0 DUP1 DUP2 SLOAD DUP1 SWAP3 SWAP2 SWAP1 PUSH2 0xA0 SWAP1 PUSH2 0x125 JUMP JUMPDEST SWAP2 SWAP1 POP SSTORE POP JUMP JUMPDEST PUSH0 DUP1 DUP2 SLOAD DUP1 SWAP3 SWAP2 SWAP1 PUSH2 0xB8 SWAP1 PUSH2 0x16C JUMP JUMPDEST SWAP2 SWAP1 POP SSTORE POP JUMP JUMPDEST PUSH0 DUP1 DUP2 SWAP1 SSTORE POP JUMP JUMPDEST PUSH0 DUP2 SWAP1 POP SWAP2 SWAP1 POP JUMP JUMPDEST PUSH2 0xD9 DUP2 PUSH2 0xC7 JUMP JUMPDEST DUP3 MSTORE POP POP JUMP JUMPDEST PUSH0 PUSH1 0x20 DUP3 ADD SWAP1 POP PUSH2 0xF2 PUSH0 DUP4 ADD DUP5 PUSH2 0xD0 JUMP JUMPDEST SWAP3 SWAP2 POP POP JUMP JUMPDEST PUSH32 0x4E487B7100000000000000000000000000000000000000000000000000000000 PUSH0 MSTORE PUSH1 0x11 PUSH1 0x4 MSTORE PUSH1 0x24 PUSH0 REVERT JUMPDEST PUSH0 PUSH2 0x12F DUP3 PUSH2 0xC7 JUMP JUMPDEST SWAP2 POP PUSH32 0xFFFFFFFFFFFFFFFFFFFFFFFFFFFFFFFFFFFFFFFFFFFFFFFFFFFFFFFFFFFFFFFF DUP3 SUB PUSH2 0x161 JUMPI PUSH2 0x160 PUSH2 0xF8 JUMP JUMPDEST JUMPDEST PUSH1 0x1 DUP3 ADD SWAP1 POP SWAP2 SWAP1 POP JUMP JUMPDEST PUSH0 PUSH2 0x176 DUP3 PUSH2 0xC7 JUMP JUMPDEST SWAP2 POP PUSH0 DUP3 SUB PUSH2 0x188 JUMPI PUSH2 0x187 PUSH2 0xF8 JUMP JUMPDEST JUMPDEST PUSH1 0x1 DUP3 SUB SWAP1 POP SWAP2 SWAP1 POP JUMP INVALID LOG2 PUSH5 0x6970667358 0x22 SLT KECCAK256 PUSH29 0x51E81FFBED66FB3A8B7E87AA31EEFB0986C5CA882B7F24962A89966B54 0xEB 0xAB PUSH5 0x736F6C6343 STOP ADDMOD BYTE STOP CALLER "
				},
				"gasEstimates": {
					"creation": {
						"codeDepositCost": "91400",
						"executionCost": "139",
						"totalCost": "91539"
					},
					"external": {
						"click()": "24497",
						"counter()": "2402",
						"decrease()": "24518",
						"reset()": "5200"
					}
				},
				"methodIdentifiers": {
					"click()": "7d55923d",
					"counter()": "61bc221a",
					"decrease()": "d732d955",
					"reset()": "d826f88f"
				}
			},
			"storageLayout": {
				"storage": [
					{
						"astId": 3,
						"contract": "contracts/Day -1/ClickCounter.sol:ClickCounter",
						"label": "counter",
						"offset": 0,
						"slot": "0",
						"type": "t_uint256"
					}
				],
				"types": {
					"t_uint256": {
						"encoding": "inplace",
						"label": "uint256",
						"numberOfBytes": "32"
					}
				}
			},
			"userdoc": {
				"kind": "user",
				"methods": {},
				"version": 1
			}
		}
	}
}